:100000000428FF3FFF3FFF3FFF30031383168500A7
:10001000860187018B01031783129E019F01031341
:10002000870186010130A000A101A201A301A40162
:10003000A5010130A600A701A801A901AA01AB01F1
:10004000AC01AD01AE010313831201300505F200CE
:100050007208013A031D43282C08003A031D432867
:10006000FF30AC00A00A0319A10A8030F0008030F4
:1000700021067002031D3E282008023C0318432875
:100080000130A000A10101300505F2007208003A1C
:10009000031D4B28AC0100302106031D51280130FF
:1000A0002006031D7A28003085180130F2007208FE
:1000B000013A031D71282D08003A031D7128FF30F5
:1000C000AD00A20A0319A30A8030F0008030230695
:1000D0007002031D6D282208633C03187128A201D9
:1000E000A301003085180130F2007208003A031DA8
:1000F0007A28AD0100302106031D80280230200639
:10010000031DA928003085180130F2007208013A59
:10011000031DA0282D08003A031DA028FF30AD00C4
:10012000A40A0319A50A8030F00080302506700269
:10013000031D9C282408633C0318A028A401A501E2
:10014000003085180130F2007208003A031DA9281A
:10015000AD01003085190130F2007208013A031D2B
:10016000C8282E08003A031DC828FF30AE00A60A92
:100170000319A70A8030F000803027067002031DA3
:10018000C3282608043C0318C8280130A600A7018C
:10019000003085190130F2007208003A031DD128A1
:1001A000AE01003005190130F2007208013A031D5A
:1001B000E928A201A3010130A000A101A401A50129
:1001C0000130A600A701AC01AD01AE0106168616EE
:1001D0000613EB2023280030031383122106031D8E
:1001E000F32801302006031D10290A30F400F50120
:1001F0002208F0002308F10077217008A800710898
:10020000A9000A30F400F501D12170082202AA00E9
:100210007108031C013F2302AB0006168616061365
:1002200000302106031D162902302006031D332944
:100230000A30F400F5012408F0002508F1007721C8
:100240007008A8007108A9000A30F400F501D12156
:1002500070082402AA007108031C013F2502AB00AC
:10026000061286120617280887000716871207133A
:1002700087130730FB00FF30FA00FB0B40294329AE
:10028000FA0B40293D297830FA00FA0B4529000085
:1002900000002A0887000712871607138713073004
:1002A000FB00FF30FA00FB0B56295929FA0B56299F
:1002B00053297830FA00FA0B5B2900000000260869
:1002C000870007128712071787130730FB00FF30DC
:1002D000FA00FB0B6C296F29FA0B6C29692978301D
:1002E000FA00FA0B712900000000080076290313B8
:1002F0008312FD01F901F80171087004031900343B
:1003000071087506FA00FA1BFD09FB01F51F8D291E
:10031000F409F509F40A0319F50AF11F9429F00903
:10032000F109F00A0319F10A71087504FA00FA1BC1
:10033000A9291A227B18BC29FD1F0034F009F109F4
:10034000F00A0319F10AF809F909F80A0319F90A78
:100350000034F51FB829F11BB4297108F9007008A1
:10036000F800F101F0019C29F101F001F00A0034DC
:10037000F109F009FB0A9929F80A0319F90A740826
:100380007802031D9C2975087902031D9C29F90137
:10039000F801F00A0319F10AF11F9C290000FF344B
:1003A000080003138312FB01FA01F9018030F80001
:1003B000FD01F11FE129F109F009F00A0319F10A21
:1003C000FD0AF51FE929F509F409F40A0319F50AEC
:1003D000FD0AF10CF00C031CF6297408F9077508E6
:1003E0000318750FFA070318FB0A0310F01FFE2904
:1003F0007408FA070318FB0A7508FB07FB0CFA0CD4
:10040000F90CF80C031CE9297D1C112AFB09FA09D7
:10041000F909F809F80A0319F90A0319FA0A03197C
:10042000FB0A7B08F3007A08F2007908F1007808EB
:10043000F000080003138312710DF80DF90D740814
:10044000F8027508031C750FF902F00DF10D0F305D
:10045000FC00710DF80DF90D7408701C352AF802B6
:100460007508031C750FF9023A2AF8077508031876
:10047000750FF907F00DF10DFC0B292A7018462AAB
:100480007408F80775080318750FF9070800FF3F8F
:02400E00C430BC
:00000001FF
